8=FIX.4.4|9=176|35=W|34=1|49=DK-EXCH|52=20160905-15:31:26.208|56=MDS-DK|55=ESP.IDX/EUR|262=sreq82|268=2|269=1|270=8956.498|271=0.000075|272=20160905|269=0|270=8952.412|271=0.0101|272=20160905|10=214|8=FIX.4.4|9=180|35=W|34=2|49=DK-EXCH|52=20160905-15:31:26.218|56=MDS-DK|55=USATECH.IDX/USD|262=sreq87|268=2|269=1|270=4788.401|271=0.00125|272=20160905|269=0|270=4787.338|271=0.00019|272=20160905|10=249|8=FIX.4.4|9=176|35=W|34=3|49=DK-EXCH|52=20160905-15:31:26.218|56=MDS-DK|55=EUS.IDX/EUR|262=sreq96|268=2|269=1|270=3081.174|271=0.00075|272=20160905|269=0|270=3080.096|271=0.00126|272=20160905|10=204|8=FIX.4.4|9=176|35=W|34=4|49=DK-EXCH|52=20160905-15:31:26.221|56=MDS-DK|55=AUS.IDX/AUD|262=sreq80|268=2|269=1|270=5411.808|271=0.00013|272=20160905|269=0|270=5409.732|271=0.00013|272=20160905|10=164|8=FIX.4.4|9=176|35=W|34=5|49=DK-EXCH|52=20160905-15:31:26.304|56=MDS-DK|55=EUS.IDX/EUR|262=sreq96|268=2|269=1|270=3081.302|271=0.00075|272=20160905|269=0|270=3080.218|271=0.00126|272=20160905|10=191|8=FIX.4.4|9=175|35=W|34=6|49=DK-EXCH|52=20160905-15:31:26.305|56=MDS-DK|55=FRA.IDX/EUR|262=sreq98|268=2|269=1|270=4545.82|271=0.00011|272=20160905|269=0|270=4545.269|271=0.00025|272=20160905|10=138|8=FIX.4.4|9=177|35=W|34=7|49=DK-EXCH|52=20160905-15:31:26.305|56=MDS-DK|55=JPN.IDX/JPY|262=sreq97|268=2|269=1|270=17023.53|271=0.000067|272=20160905|269=0|270=17019.647|271=0.0112|272=20160905|10=003|8=FIX.4.4|9=176|35=W|34=8|49=DK-EXCH|52=20160905-15:31:26.305|56=MDS-DK|55=DEU.IDX/EUR|262=sreq72|268=2|269=1|270=10680.831|271=0.0101|272=20160905|269=0|270=10678.713|271=0.0101|272=20160905|10=178|8=FIX.4.4|9=177|35=W|34=9|49=DK-EXCH|52=20160905-15:31:26.305|56=MDS-DK|55=GBR.IDX/GBP|262=sreq73|268=2|269=1|270=6878.988|271=0.00015|272=20160905|269=0|270=6878.769|271=0.000015|272=20160905|10=004|8=FIX.4.4|9=176|35=W|34=10|49=DK-EXCH|52=20160905-15:31:26.305|56=MDS-DK|55=ESP.IDX/EUR|262=sreq82|268=2|269=1|270=8956.38|271=0.000075|272=20160905|269=0|270=8952.312|271=0.0101|272=20160905|10=201|8=FIX.4.4|9=177|35=W|34=11|49=DK-EXCH|52=20160905-15:31:26.306|56=MDS-DK|55=GBR.IDX/GBP|262=sreq73|268=2|269=1|270=6879.03|271=0.00015|272=20160905|269=0|270=6878.769|271=0.000015|272=20160905|10=233|8=FIX.4.4|9=177|35=W|34=12|49=DK-EXCH|52=20160905-15:31:26.306|56=MDS-DK|55=LIGHT.CMD/USD|262=sreq74|268=2|269=1|270=45.128|271=0.000048|272=20160905|269=0|270=45.062|271=0.000012|272=20160905|10=254|8=FIX.4.4|9=176|35=W|34=13|49=DK-EXCH|52=20160905-15:31:26.308|56=MDS-DK|55=FRA.IDX/EUR|262=sreq98|268=2|269=1|270=4545.79|271=0.00011|272=20160905|269=0|270=4545.269|271=0.00025|272=20160905|10=194|8=FIX.4.4|9=178|35=W|34=14|49=DK-EXCH|52=20160905-15:31:26.308|56=MDS-DK|55=BRENT.CMD/USD|262=sreq104|268=2|269=1|270=47.445|271=0.000060|272=20160905|269=0|270=47.395|271=0.000038|272=20160905|10=065|8=FIX.4.4|9=180|35=W|34=15|49=DK-EXCH|52=20160905-15:31:26.308|56=MDS-DK|55=USA30.IDX/USD|262=sreq79|268=2|269=1|270=18488.74|271=0.00047|272=20160905|269=0|270=18483.969|271=0.00035|272=20160905|10=174|8=FIX.4.4|9=181|35=W|34=16|49=DK-EXCH|52=20160905-15:31:26.311|56=MDS-DK|55=USA30.IDX/USD|262=sreq79|268=2|269=1|270=18488.919|271=0.00047|272=20160905|269=0|270=18483.969|271=0.00035|272=20160905|10=226|8=FIX.4.4|9=180|35=W|34=17|49=DK-EXCH|52=20160905-15:31:26.336|56=MDS-DK|55=USATECH.IDX/USD|262=sreq87|268=2|269=1|270=4788.451|271=0.00125|272=20160905|269=0|270=4787.37|271=0.00019|272=20160905|10=001|8=FIX.4.4|9=178|35=W|34=18|49=DK-EXCH|52=20160905-15:31:26.584|56=MDS-DK|55=GBR.IDX/GBP|262=sreq73|268=2|269=1|270=6879.061|271=0.00015|272=20160905|269=0|270=6878.769|271=0.000015|272=20160905|10=045|8=FIX.4.4|9=178|35=W|34=19|49=DK-EXCH|52=20160905-15:31:26.585|56=MDS-DK|55=BRENT.CMD/USD|262=sreq104|268=2|269=1|270=47.465|271=0.000098|272=20160905|269=0|270=47.405|271=0.000040|272=20160905|10=075|8=FIX.4.4|9=177|35=W|34=20|49=DK-EXCH|52=20160905-15:31:26.600|56=MDS-DK|55=ESP.IDX/EUR|262=sreq82|268=2|269=1|270=8956.298|271=0.000075|272=20160905|269=0|270=8952.222|271=0.0101|272=20160905|10=001|8=FIX.4.4|9=180|35=W|34=21|49=DK-EXCH|52=20160905-15:31:26.604|56=MDS-DK|55=USA500.IDX/USD|262=sreq75|268=2|269=1|270=2178.381|271=0.00030|272=20160905|269=0|270=2177.717|271=0.00096|272=20160905|10=141|8=FIX.4.4|9=177|35=W|34=22|49=DK-EXCH|52=20160905-15:31:26.724|56=MDS-DK|55=EUS.IDX/EUR|262=sreq96|268=2|269=1|270=3081.313|271=0.00075|272=20160905|269=0|270=3080.237|271=0.00126|272=20160905|10=248|8=FIX.4.4|9=179|35=W|34=23|49=DK-EXCH|52=20160905-15:31:26.747|56=MDS-DK|55=DEU.IDX/EUR|262=sreq72|268=2|269=1|270=10680.531|271=0.0101|272=20160905|269=0|270=10678.713|271=0.000075|272=20160905|10=083|8=FIX.4.4|9=177|35=W|34=24|49=DK-EXCH|52=20160905-15:31:26.903|56=MDS-DK|55=GBR.IDX/GBP|262=sreq73|268=2|269=1|270=6879.08|271=0.00015|272=20160905|269=0|270=6878.769|271=0.000015|272=20160905|10=245|8=FIX.4.4|9=178|35=W|34=25|49=DK-EXCH|52=20160905-15:31:26.903|56=MDS-DK|55=JPN.IDX/JPY|262=sreq97|268=2|269=1|270=17023.53|271=0.000067|272=20160905|269=0|270=17019.334|271=0.0112|272=20160905|10=049|8=FIX.4.4|9=177|35=W|34=26|49=DK-EXCH|52=20160905-15:31:26.903|56=MDS-DK|55=DEU.IDX/EUR|262=sreq72|268=2|269=1|270=10680.531|271=0.0101|272=20160905|269=0|270=10678.353|271=0.0101|272=20160905|10=228|8=FIX.4.4|9=176|35=W|34=27|49=DK-EXCH|52=20160905-15:31:26.947|56=MDS-DK|55=FRA.IDX/EUR|262=sreq98|268=2|269=1|270=4545.81|271=0.00011|272=20160905|269=0|270=4545.269|271=0.00025|272=20160905|10=201|8=FIX.4.4|9=177|35=W|34=28|49=DK-EXCH|52=20160905-15:31:26.949|56=MDS-DK|55=DEU.IDX/EUR|262=sreq72|268=2|269=1|270=10680.531|271=0.0101|272=20160905|269=0|270=10678.196|271=0.0101|272=20160905|10=245|8=FIX.4.4|9=181|35=W|34=29|49=DK-EXCH|52=20160905-15:31:27.078|56=MDS-DK|55=USA30.IDX/USD|262=sreq79|268=2|269=1|270=18488.915|271=0.00047|272=20160905|269=0|270=18483.969|271=0.00035|272=20160905|10=237|8=FIX.4.4|9=177|35=W|34=30|49=DK-EXCH|52=20160905-15:31:27.078|56=MDS-DK|55=DEU.IDX/EUR|262=sreq72|268=2|269=1|270=10680.531|271=0.0101|272=20160905|269=0|270=10678.109|271=0.0101|272=20160905|10=226|8=FIX.4.4|9=177|35=W|34=31|49=DK-EXCH|52=20160905-15:31:27.078|56=MDS-DK|55=EUS.IDX/EUR|262=sreq96|268=2|269=1|270=3081.173|271=0.00075|272=20160905|269=0|270=3080.097|271=0.00126|272=20160905|10=003|8=FIX.4.4|9=175|35=W|34=32|49=DK-EXCH|52=20160905-15:31:27.079|56=MDS-DK|55=FRA.IDX/EUR|262=sreq98|268=2|269=1|270=4545.81|271=0.00011|272=20160905|269=0|270=4544.97|271=0.00025|272=20160905|10=143|8=FIX.4.4|9=178|35=W|34=33|49=DK-EXCH|52=20160905-15:31:27.082|56=MDS-DK|55=GBR.IDX/GBP|262=sreq73|268=2|269=1|270=6879.002|271=0.00015|272=20160905|269=0|270=6878.769|271=0.000015|272=20160905|10=031|8=FIX.4.4|9=178|35=W|34=34|49=DK-EXCH|52=20160905-15:31:27.333|56=MDS-DK|55=JPN.IDX/JPY|262=sreq97|268=2|269=1|270=17023.53|271=0.000067|272=20160905|269=0|270=17019.347|271=0.0112|272=20160905|10=051|8=FIX.4.4|9=177|35=W|34=35|49=DK-EXCH|52=20160905-15:31:27.333|56=MDS-DK|55=FRA.IDX/EUR|262=sreq98|268=2|269=1|270=4545.651|271=0.00011|272=20160905|269=0|270=4544.769|271=0.00025|272=20160905|10=246|8=FIX.4.4|9=177|35=W|34=36|49=DK-EXCH|52=20160905-15:31:27.333|56=MDS-DK|55=ESP.IDX/EUR|262=sreq82|268=2|269=1|270=8956.056|271=0.000075|272=20160905|269=0|270=8951.982|271=0.0101|272=20160905|10=016|8=FIX.4.4|9=178|35=W|34=37|49=DK-EXCH|52=20160905-15:31:27.334|56=MDS-DK|55=LIGHT.CMD/USD|262=sreq74|268=2|269=1|270=45.137|271=0.000038|272=20160905|269=0|270=45.072|271=0.0000080|272=20160905|10=061|8=FIX.4.4|9=177|35=W|34=38|49=DK-EXCH|52=20160905-15:31:27.337|56=MDS-DK|55=BRENT.CMD/USD|262=sreq104|268=2|269=1|270=47.46|271=0.000060|272=20160905|269=0|270=47.405|271=0.000038|272=20160905|10=014|8=FIX.4.4|9=180|35=W|34=39|49=DK-EXCH|52=20160905-15:31:27.337|56=MDS-DK|55=USA500.IDX/USD|262=sreq75|268=2|269=1|270=2178.381|271=0.00101|272=20160905|269=0|270=2177.714|271=0.00096|272=20160905|10=150|8=FIX.4.4|9=177|35=W|34=40|49=DK-EXCH|52=20160905-15:31:27.487|56=MDS-DK|55=FRA.IDX/EUR|262=sreq98|268=2|269=1|270=4545.661|271=0.00761|272=20160905|269=0|270=4544.769|271=0.00025|272=20160905|10=009|8=FIX.4.4|9=177|35=W|34=41|49=DK-EXCH|52=20160905-15:31:27.487|56=MDS-DK|55=EUS.IDX/EUR|262=sreq96|268=2|269=1|270=3081.053|271=0.00075|272=20160905|269=0|270=3079.977|271=0.00126|272=20160905|10=020|8=FIX.4.4|9=178|35=W|34=42|49=DK-EXCH|52=20160905-15:31:27.563|56=MDS-DK|55=GBR.IDX/GBP|262=sreq73|268=2|269=1|270=6878.997|271=0.00015|272=20160905|269=0|270=6878.769|271=0.000015|272=20160905|10=057|8=FIX.4.4|9=176|35=W|34=43|49=DK-EXCH|52=20160905-15:31:27.721|56=MDS-DK|55=FRA.IDX/EUR|262=sreq98|268=2|269=1|270=4545.65|271=0.00761|272=20160905|269=0|270=4544.769|271=0.00025|272=20160905|10=208|8=FIX.4.4|9=177|35=W|34=44|49=DK-EXCH|52=20160905-15:31:27.721|56=MDS-DK|55=AUS.IDX/AUD|262=sreq80|268=2|269=1|270=5411.699|271=0.00013|272=20160905|269=0|270=5409.613|271=0.00013|272=20160905|10=229|8=FIX.4.4|9=176|35=W|34=45|49=DK-EXCH|52=20160905-15:31:27.773|56=MDS-DK|55=GBR.IDX/GBP|262=sreq73|268=2|269=1|270=6878.98|271=0.00015|272=20160905|269=0|270=6878.47|271=0.000015|272=20160905|10=202|8=FIX.4.4|9=178|35=W|34=46|49=DK-EXCH|52=20160905-15:31:27.774|56=MDS-DK|55=DEU.IDX/EUR|262=sreq72|268=2|269=1|270=10680.03|271=0.0101|272=20160905|269=0|270=10678.109|271=0.000075|272=20160905|10=033|8=FIX.4.4|9=175|35=W|34=47|49=DK-EXCH|52=20160905-15:31:27.869|56=MDS-DK|55=EUS.IDX/EUR|262=sreq96|268=2|269=1|270=3081.034|271=0.00075|272=20160905|269=0|270=3079.966|271=0.009|272=20160905|10=185|8=FIX.4.4|9=175|35=W|34=48|49=DK-EXCH|52=20160905-15:31:27.869|56=MDS-DK|55=BRENT.CMD/USD|262=sreq104|268=2|269=1|270=47.46|271=0.000098|272=20160905|269=0|270=47.4|271=0.000078|272=20160905|10=193|8=FIX.4.4|9=177|35=W|34=49|49=DK-EXCH|52=20160905-15:31:27.869|56=MDS-DK|55=GBR.IDX/GBP|262=sreq73|268=2|269=1|270=6878.827|271=0.00015|272=20160905|269=0|270=6878.47|271=0.000015|272=20160905|10=005|8=FIX.4.4|9=178|35=W|34=50|49=DK-EXCH|52=20160905-15:31:27.869|56=MDS-DK|55=LIGHT.CMD/USD|262=sreq74|268=2|269=1|270=45.137|271=0.000085|272=20160905|269=0|270=45.073|271=0.0000080|272=20160905|10=072|8=FIX.4.4|9=181|35=W|34=51|49=DK-EXCH|52=20160905-15:31:28.577|56=MDS-DK|55=USA30.IDX/USD|262=sreq79|268=2|269=1|270=18489.147|271=0.00047|272=20160905|269=0|270=18483.969|271=0.00035|272=20160905|10=235|8=FIX.4.4|9=177|35=W|34=52|49=DK-EXCH|52=20160905-15:31:28.579|56=MDS-DK|55=FRA.IDX/EUR|262=sreq98|268=2|269=1|270=4545.581|271=0.00761|272=20160905|269=0|270=4544.769|271=0.00025|272=20160905|10=016|8=FIX.4.4|9=180|35=W|34=53|49=DK-EXCH|52=20160905-15:31:28.580|56=MDS-DK|55=USA500.IDX/USD|262=sreq75|268=2|269=1|270=2178.381|271=0.00101|272=20160905|269=0|270=2177.708|271=0.00096|272=20160905|10=150|8=FIX.4.4|9=178|35=W|34=54|49=DK-EXCH|52=20160905-15:31:28.675|56=MDS-DK|55=DEU.IDX/EUR|262=sreq72|268=2|269=1|270=10680.03|271=0.0101|272=20160905|269=0|270=10678.241|271=0.000075|272=20160905|10=030|8=FIX.4.4|9=180|35=W|34=55|49=DK-EXCH|52=20160905-15:31:28.676|56=MDS-DK|55=USATECH.IDX/USD|262=sreq87|268=2|269=1|270=4788.463|271=0.00125|272=20160905|269=0|270=4787.39|271=0.00019|272=20160905|10=017|8=FIX.4.4|9=177|35=W|34=56|49=DK-EXCH|52=20160905-15:31:28.680|56=MDS-DK|55=ESP.IDX/EUR|262=sreq82|268=2|269=1|270=8956.156|271=0.000075|272=20160905|269=0|270=8952.078|271=0.0101|272=20160905|10=022|8=FIX.4.4|9=175|35=W|34=57|49=DK-EXCH|52=20160905-15:31:28.680|56=MDS-DK|55=EUS.IDX/EUR|262=sreq96|268=2|269=1|270=3081.043|271=0.00075|272=20160905|269=0|270=3079.967|271=0.009|272=20160905|10=179|8=FIX.4.4|9=177|35=W|34=58|49=DK-EXCH|52=20160905-15:31:28.680|56=MDS-DK|55=GBR.IDX/GBP|262=sreq73|268=2|269=1|270=6879.297|271=0.00015|272=20160905|269=0|270=6878.97|271=0.000015|272=20160905|10=004|8=FIX.4.4|9=178|35=W|34=59|49=DK-EXCH|52=20160905-15:31:28.680|56=MDS-DK|55=LIGHT.CMD/USD|262=sreq74|268=2|269=1|270=45.132|271=0.000048|272=20160905|269=0|270=45.068|271=0.0000080|272=20160905|10=071|8=FIX.4.4|9=177|35=W|34=60|49=DK-EXCH|52=20160905-15:31:28.685|56=MDS-DK|55=AUS.IDX/AUD|262=sreq80|268=2|269=1|270=5411.797|271=0.00013|272=20160905|269=0|270=5409.733|271=0.00013|272=20160905|10=239|8=FIX.4.4|9=180|35=W|34=61|49=DK-EXCH|52=20160905-15:31:28.709|56=MDS-DK|55=USA500.IDX/USD|262=sreq75|268=2|269=1|270=2178.381|271=0.00101|272=20160905|269=0|270=2177.719|271=0.00096|272=20160905|10=154|8=FIX.4.4|9=177|35=W|34=62|49=DK-EXCH|52=20160905-15:31:28.720|56=MDS-DK|55=DEU.IDX/EUR|262=sreq72|268=2|269=1|270=10680.33|271=0.0101|272=20160905|269=0|270=10678.41|271=0.000075|272=20160905|10=228|8=FIX.4.4|9=177|35=W|34=63|49=DK-EXCH|52=20160905-15:31:28.725|56=MDS-DK|55=AUS.IDX/AUD|262=sreq80|268=2|269=1|270=5411.698|271=0.00013|272=20160905|269=0|270=5409.624|271=0.00013|272=20160905|10=236|8=FIX.4.4|9=177|35=W|34=64|49=DK-EXCH|52=20160905-15:31:28.725|56=MDS-DK|55=GBR.IDX/GBP|262=sreq73|268=2|269=1|270=6879.491|271=0.00015|272=20160905|269=0|270=6878.97|271=0.000015|272=20160905|10=253|8=FIX.4.4|9=176|35=W|34=65|49=DK-EXCH|52=20160905-15:31:29.026|56=MDS-DK|55=DEU.IDX/EUR|262=sreq72|268=2|269=1|270=10680.531|271=0.0101|272=20160905|269=0|270=10678.41|271=0.0101|272=20160905|10=175|8=FIX.4.4|9=181|35=W|34=66|49=DK-EXCH|52=20160905-15:31:29.036|56=MDS-DK|55=USA30.IDX/USD|262=sreq79|268=2|269=1|270=18489.181|271=0.00047|272=20160905|269=0|270=18483.969|271=0.00035|272=20160905|10=230|8=FIX.4.4|9=176|35=W|34=67|49=DK-EXCH|52=20160905-15:31:29.087|56=MDS-DK|55=FRA.IDX/EUR|262=sreq98|268=2|269=1|270=4545.541|271=0.00011|272=20160905|269=0|270=4544.97|271=0.00025|272=20160905|10=202|8=FIX.4.4|9=181|35=W|34=68|49=DK-EXCH|52=20160905-15:31:29.134|56=MDS-DK|55=USA30.IDX/USD|262=sreq79|268=2|269=1|270=18489.244|271=0.00047|272=20160905|269=0|270=18483.969|271=0.00035|272=20160905|10=231|8=FIX.4.4|9=180|35=W|34=69|49=DK-EXCH|52=20160905-15:31:29.134|56=MDS-DK|55=USA500.IDX/USD|262=sreq75|268=2|269=1|270=2178.381|271=0.00030|272=20160905|269=0|270=2177.713|271=0.00096|272=20160905|10=150|8=FIX.4.4|9=176|35=W|34=70|49=DK-EXCH|52=20160905-15:31:29.163|56=MDS-DK|55=GBR.IDX/GBP|262=sreq73|268=2|269=1|270=6879.48|271=0.00015|272=20160905|269=0|270=6878.97|271=0.000015|272=20160905|10=196|8=FIX.4.4|9=181|35=W|34=71|49=DK-EXCH|52=20160905-15:31:29.164|56=MDS-DK|55=USATECH.IDX/USD|262=sreq87|268=2|269=1|270=4788.465|271=0.00125|272=20160905|269=0|270=4787.384|271=0.00019|272=20160905|10=062|8=FIX.4.4|9=176|35=W|34=72|49=DK-EXCH|52=20160905-15:31:29.231|56=MDS-DK|55=FRA.IDX/EUR|262=sreq98|268=2|269=1|270=4545.571|271=0.00011|272=20160905|269=0|270=4544.97|271=0.00025|272=20160905|10=192|8=FIX.4.4|9=177|35=W|34=73|49=DK-EXCH|52=20160905-15:31:29.329|56=MDS-DK|55=JPN.IDX/JPY|262=sreq97|268=2|269=1|270=17023.53|271=0.000067|272=20160905|269=0|270=17020.21|271=0.0112|272=20160905|10=249|8=FIX.4.4|9=181|35=W|34=74|49=DK-EXCH|52=20160905-15:31:29.524|56=MDS-DK|55=USA30.IDX/USD|262=sreq79|268=2|269=1|270=18489.195|271=0.00047|272=20160905|269=0|270=18483.969|271=0.00035|272=20160905|10=236|8=FIX.4.4|9=178|35=W|34=75|49=DK-EXCH|52=20160905-15:31:29.526|56=MDS-DK|55=LIGHT.CMD/USD|262=sreq74|268=2|269=1|270=45.127|271=0.000038|272=20160905|269=0|270=45.068|271=0.0000080|272=20160905|10=072|8=FIX.4.4|9=176|35=W|34=76|49=DK-EXCH|52=20160905-15:31:29.531|56=MDS-DK|55=GBR.IDX/GBP|262=sreq73|268=2|269=1|270=6879.47|271=0.00015|272=20160905|269=0|270=6878.97|271=0.000015|272=20160905|10=200|8=FIX.4.4|9=175|35=W|34=77|49=DK-EXCH|52=20160905-15:31:29.533|56=MDS-DK|55=FRA.IDX/EUR|262=sreq98|268=2|269=1|270=4545.89|271=0.00011|272=20160905|269=0|270=4544.97|271=0.00025|272=20160905|10=157|8=FIX.4.4|9=176|35=W|34=78|49=DK-EXCH|52=20160905-15:31:29.573|56=MDS-DK|55=FRA.IDX/EUR|262=sreq98|268=2|269=1|270=4545.89|271=0.00011|272=20160905|269=0|270=4545.269|271=0.00025|272=20160905|10=213|8=FIX.4.4|9=177|35=W|34=79|49=DK-EXCH|52=20160905-15:31:29.586|56=MDS-DK|55=EUS.IDX/EUR|262=sreq96|268=2|269=1|270=3081.053|271=0.00075|272=20160905|269=0|270=3079.987|271=0.00126|272=20160905|10=034|8=FIX.4.4|9=181|35=W|34=80|49=DK-EXCH|52=20160905-15:31:29.689|56=MDS-DK|55=USA30.IDX/USD|262=sreq79|268=2|269=1|270=18489.251|271=0.00047|272=20160905|269=0|270=18483.969|271=0.00035|272=20160905|10=238|8=FIX.4.4|9=176|35=W|34=81|49=DK-EXCH|52=20160905-15:31:29.689|56=MDS-DK|55=GBR.IDX/GBP|262=sreq73|268=2|269=1|270=6879.52|271=0.00015|272=20160905|269=0|270=6878.97|271=0.000015|272=20160905|10=206|8=FIX.4.4|9=178|35=W|34=82|49=DK-EXCH|52=20160905-15:31:29.690|56=MDS-DK|55=JPN.IDX/JPY|262=sreq97|268=2|269=1|270=17023.53|271=0.000067|272=20160905|269=0|270=17019.411|271=0.0112|272=20160905|10=054|8=FIX.4.4|9=177|35=W|34=83|49=DK-EXCH|52=20160905-15:31:29.690|56=MDS-DK|55=DEU.IDX/EUR|262=sreq72|268=2|269=1|270=10680.531|271=0.0101|272=20160905|269=0|270=10678.404|271=0.0101|272=20160905|10=234|8=FIX.4.4|9=175|35=W|34=84|49=DK-EXCH|52=20160905-15:31:29.690|56=MDS-DK|55=FRA.IDX/EUR|262=sreq98|268=2|269=1|270=4545.89|271=0.00037|272=20160905|269=0|270=4544.83|271=0.00011|272=20160905|10=157|